:020000040800F2
:100000001009002031020008CB180008F117000881
:10001000C9180008D50B00082F1B000800000000BD
:10002000000000000000000000000000990100082E
:10003000D70B000800000000DD010008CD18000803
:100040004B0200084B0200084B0200084B0200085C
:100050004B0200084B0200084B0200084B0200084C
:100060004B0200084B0200084B0200084B0200083C
:100070004B0200084B0200084B0200084B0200082C
:100080004B0200084B0200084B0200084B0200081C
:100090004B0200084B0200084B0200084B0200080C
:1000A0004B0200084B0200084B0200084B020008FC
:1000B0004B0200084B020008311900084B020008EF
:1000C0004B0200084B0200084B0200084B020008DC
:1000D0004B0200084B0200084B0200084B020008CC
:1000E0004B0200084B0200084B02000800F002F827
:1000F00000F042F80AA090E8000C82448344AAF180
:100100000107DA4501D100F037F8AFF2090EBAE87D
:100110000F0013F0010F18BFFB1A43F0010318473B
:10012000E41A0000041B0000103A24BF78C878C10C
:10013000FAD8520724BF30C830C144BF04680C60ED
:10014000704700000023002400250026103A28BF35
:1001500078C1FBD8520728BF30C148BF0B60704739
:100160001FB59DE8030000F007FB00F0E5F81FBD98
:1001700010B500F04AF910BD00F0ADF91146FFF7D7
:10018000EFFF01F0F1FC00F0C5FA03B4FFF7F0FF58
:1001900003BC00F083FC0000224B19680868B0E83B
:1001A000F00F80F30988BFF36F8F4FF0000080F3EA
:1001B00011884EF00D0E70470000000006480068E0
:1001C000006880F3088862B661B6BFF34F8FBFF353
:1001D0006F8F00DF00BF00BF08ED00E0EFF3098084
:1001E000BFF36F8F0F4B1A6820E9F00F106008B54E
:1001F0004FF0BF0080F31188BFF34F8FBFF36F8FB5
:1002000001F0C2FC4FF0000080F31188BDE8084007
:1002100019680868B0E8F00F80F30988BFF36F8FA2
:10022000704700BF10000020EFF30580704700000A
:100230000948804709480047FEE7FEE7FEE7FEE77A
:10024000FEE7FEE7FEE7FEE7FEE7FEE704480549B6
:10025000054A064B704700002D190008ED00000804
:1002600010030020100900201005002010050020B8
:100270000FB4044910B503AA029800F02FF810BC7F
:100280005DF814FB080200204FF0000200B5134691
:1002900094469646203922BFA0E80C50A0E80C50A6
:1002A000B1F12001BFF4F7AF090728BFA0E80C5057
:1002B00048BF0CC05DF804EB890028BF40F8042B50
:1002C00008BF704748BF20F8022B11F0804F18BFBD
:1002D00000F8012B7047704770477047074B70B5A7
:1002E0000D467B4400F011F80446284600F020F843
:1002F00010B14FF0FF3070BD204670BD6B1800008C
:1003000001694A1C02610878704700B58FB0CDE9D9
:1003100001310021059105497944CDE903101146C9
:10032000684600F024F90FB000BD0000E5FFFFFFB4
:10033000007B00F08000704710B542485421FFF761
:10034000A3FF41485421FFF79FFF40485421FFF786
:100350009BFF3F493B483C4A3F4B08603D490A6090
:100360003A491960531C0365481C10650120086553
:100370003B48344A39A1784400F030F920B9384874
:1003800078440A3800F0CFF937482F4A35A178442D
:1003900000F024F920B9344878440A3800F0C3F951
:1003A00032482A4A2FA1784400F018F920B92F4882
:1003B00078440A3800F0B7F940232248DC000021D5
:1003C000224600F0E8F820B125487844543800F07F
:1003D000AAF91D4822464023002100F0DCF820B194
:1003E00021487844543800F09EF9184822461023DA
:1003F000002100F0D0F8002806D01C487844BDE861
:100400001040563800F08FB910BD104870B5006D1F
:1004100020F001040B4800F057F90B4800F054F9A4
:100420000A4800F051F909E0206D20F0010520464E
:1004300000F04AF9204600F073F82C46002CF3D166
:1004400070BD0000B4010020080200205C02002002
:1004500050000020540000205800002072000000CE
:100460007C18000077000000681800005418000095
:100470000EB5CDE9000100F0F1FA029069460120C5
:10048000ABBE0EBD08B5694600900220ABBE08BDEC
:100490001FB58DE8070069460520ABBE04B010BD4E
:1004A0001FB58DE80F0069460620ABBEF6E708B51C
:1004B000694600900920ABBE08BD1CB5CDE900011E
:1004C00069460A20ABBE1CBD704708B5694600905E
:1004D0000C20ABBE08BD754600F02CF9AE460500F9
:1004E0006946534620F00700854618B020B5FFF74F
:1004F000ADFEBDE820404FF000064FF000074FF082
:1005000000084FF0000B21F00701AC46ACE8C00931
:10051000ACE8C009ACE8C009ACE8C0098D4670473A
:1005200070B50446051F00F00BF90068002C14BFDD
:10053000446870BD002C18BFAC423CBF20466468C4
:10054000F8D301680A18AA4218BF456003D12A6887
:1005500005461144016028684119A1421CBF6C6026
:1005600070BD6168696021680844286070BD2DE92C
:10057000F04106460024D6E90170F5688046304611
:1005800003E04146B847641C3046A8470028F8D12C
:100590002046BDE8F08170B5C468A50713D0650298
:1005A00011D4B2F5807F09D0B2F5007F06D0B2F544
:1005B000806F08D1012300F1240106E05D1E6FF079
:1005C0007F46B54201D3012070BD0161C361416026
:1005D00024F470611143C160002070BD2DE9F04129
:1005E0000C4607461646104600F06EF82078611C4F
:1005F00061280AD0722802D077283CD102E0012578
:10060000002405E00225042402E0082448F2020543
:1006100011F8010B2B2806D0622809D011F8010C23
:1006200074280AD00BE045F0030544F00204EFE71C
:1006300045F0040544F00104EAE744F010043846AC
:100640002146FFF715FF411C15D000213161716073
:100650004FF40071F560F1617061200704D53046F8
:100660000222002100F0E6F8306D40F00100306514
:100670003046BDE8F0810020FBE72DE9F0410D4652
:100680000646104C206DC10704D0410804D020F06C
:100690000104F7E722460EE0542000F09CF8070022
:1006A0000ED0206D47F001010843542120653846E3
:1006B000FFF7EAFD3A4629463046BDE8F0418DE7AE
:1006C0000020D6E7B40100202DE9F04704464FF0A2
:1006D00000094FF0FF37C568D4E90486A80707D0A2
:1006E000204600F057F93046FFF7CCFE002802DA2A
:1006F0003846BDE8F087280502D54046FFF710FFD1
:100700004C212046FFF7C0FD206D20F00100206540
:100710004846EEE710B50446AFF300802046BDE83A
:100720001040FFF732BD10B500F07EF9BDE8104073
:1007300000F074B900487047B00200207047000014
:1007400000487047B80200207047704770477047F4
:1007500038B504460A4600206946AFF300800028F9
:1007600008BF38BD02460099204600F0A4F90120D8
:1007700038BD012000F0F3B9F8B5AFF300800546AD
:1007800000200C46102000BF0646A819A0420DD933
:10079000324669460020AFF30080070008BF00F032
:1007A000DEF90098A04218BF0546C419FFF7C8FF3C
:1007B00005600746F01D20F007004619284600F0A6
:1007C00073F9B44208BFF8BDA21B31463868BDE8D2
:1007D000F84000F070B970B50646FFF7B1FF056844
:1007E00006F10B0020F00704B4429CBF002070BD4E
:1007F0002B466A68BAB11068A04210D304F1080110
:1008000088423CBF5068586007D351681019416056
:100810001168091B016058601460101D70BD1346FB
:100820005268002AE7D121462846FFF791FF0028A9
:10083000DED170BD2DE9F041044616460D464769EC
:10084000007B80072ED03846FFF731FE50BB3EB309
:10085000012E02D0022E25D104E0204600F045F9F9
:1008600005441DE03846FFF730FEE168002841F0FE
:100870001001E16005DA204600F058F80120BDE8DB
:10088000F081C9030BD56268E16A914200D8114634
:10089000A26911442269891A814200DD0846054493
:1008A000002D01DA0220EAE7E16A6068E26881422D
:1008B00006D29103E06203D522F4003141F0100228
:1008C000A6690027AE4213DCE16A814201D90B46DA
:1008D00000E0034603EB060C2369ACEB030CAC45CC
:1008E00006DD814201D98C4600E084469C4505D155
:1008F000A760276042F02000A5620DE0AD1BE6690D
:10090000AE1B8142A66000D90846C01A281A206092
:100910005819606022F0200003490840E060002080
:1009200084F84870ABE70000BFCFD7FFC16821F45F
:10093000001141F08001C1600021816001607047B9
:100940002DE9F047814614460E464FF0FF383248F5
:10095000D5685769054209D03846A169FFF7ADFD52
:10096000002811DB2C48C0430540E5602B46324689
:1009700049463846FFF78CFDA16920F00042B21AC3
:1009800011440028A16103D02046FFF7CFFF404665
:10099000BDE8F08770B504460569C06A61688842A1
:1009A00000D80846E16821F42011E160C90312D59E
:1009B000A84208D02246411B2846FFF7C1FF10B1CC
:1009C0004FF0FF3070BD0020E562C4E90150E068DF
:1009D00020F48030E060002070BD10B50446C0688F
:1009E00020F02000E060A16AA06988420DD0204676
:1009F000FFF7D0FFE06820F4405040F01000E060C6
:100A0000A06AA0612069E062606044F24001E06891
:100A10008843E06010BD000010000200002801D0F3
:100A200000F03CB87047000010B5014602A000F08D
:100A30007DF8012010BD00005349475254524544EF
:100A40003A2052656469726563743A2063616E2767
:100A500074206F70656E3A200000000010B5431CD2
:100A600002E010F8011B71B18107FAD14FF0013299
:100A700002C88C1A8C4314EAC211F9D0C01A0A06B3
:100A800003D0C01E10BDC01A10BD0A0401D0801EC4
:100A900010BD0902FCD0401E10BD00000149182005
:100AA000ABBEFEE72600020000210160C0E9011094
:100AB000704710207047034640688C46002818BFD6
:100AC00088423CBF03464068F8D3186818448842FF
:100AD00007D00CF1030020F00700001D411A521A44
:100AE0000146081D0A60FFF71BBD10B50146C2682C
:100AF000900703D0900607D5886A0AE000F03EF818
:100B000001210160881E10BD8B69486818440B697B
:100B1000C01A91F848301BB191F84910401A10BD25
:100B20001103FCD50028FADD401E10BD70B5054646
:100B30000C460A2000E06D1C00F018F835B128784A
:100B40000028F8D102E0641C00F010F814B12078FD
:100B50000028F8D1BDE870400A2000F007B810B5B1
:100B600000F010F8BDE81040FFF758BF08B569461F
:100B70008DF800000320ABBE08BD000000487047A0
:100B8000B002002010B5012805D0002103A0FFF716
:100B9000CDFF012010BD09A1F8E7000053494752DD
:100BA000544D454D3A204F7574206F66206865613D
:100BB00070206D656D6F7279000000003A20486505
:100BC0006170206D656D6F727920636F72727570E0
:100BD00074656400FEE7704772B6FEE72DE9F84FD2
:100BE000DFF8B8910024A9F1040B23460F2709F17F
:100BF000040AABF1040EC9E00125A5402A40AA422F
:100C00007DD1674ED1F804C0ACEB0608B44532D0B4
:100C100014DCBCF1030F3AD009DCBCF1000F2AD080
:100C2000BCF1010F1CD0BCF1020F31D11DE0BCF1B1
:100C3000110F17D0BCF1120F2AD119E0B8F5881F97
:100C400019D006DCB8F5803F15D0B8F5801F1FD14C
:100C500011E0B8F5001F0ED0B8F5041F18D10AE056
:100C6000CB6815E0CB681B1D12E0CB6808330FE0A2
:100C7000CB680C330CE08B682BB1012B4FF00803D1
:100C800003D0456104E0042302E0056100E0002395
:100C9000FF2A01D8064601E000F104064FEA840568
:100CA00001D9A5F12005D6F8008007FA05FC28EA4D
:100CB0000C0803FA05F548EA0508C6F800804D68F7
:100CC000ED0062D5374DAE6946F00106AE61AD6903
:100CD00024F0030605F001050095334D06EB050CE5
:100CE000DCF80850A607360F07FA06F825EA0805CB
:100CF000DFF8B880404503D14FF0000817E044E02A
:100D0000DFF8AC80404502D14FF001080FE0DFF87A
:100D1000A480404502D14FF0020808E0DFF8988037
:100D2000404502D14FF0030801E04FF0040808FAF3
:100D300006F848EA0508CCF808804D68D9F8006044
:100D4000ED024D4601D5164300E096432E604D68F6
:100D5000DAF80060AD02554601D5164300E096432F
:100D60002E604D68DBF80060AD035D4601D516438B
:100D700000E096432E604D68DEF80060ED03754696
:100D800001D5164300E096432E60641C0D682A4688
:100D9000E5407FF431AFBDE8F88F00000804014062
:100DA0000000111000100240000001400008014046
:100DB000000C014000100140001401400AB1016123
:100DC00070470904FBE70000014880687047000095
:100DD0000000002002488168027811448160704759
:100DE00000000020074810B5016841F010010160C3
:100DF000032000F0A1F80F2000F006F800F050F8F2
:100E0000002010BD0020024030B505461F4887B0C5
:100E1000C16941F00401C161C06906A900F0040084
:100E2000009001A800F030F90498B0B100F04CF93E
:100E300040001749174AB0FBF1F11748491E0260FC
:100E4000416040F2E7320021C0E903218160816105
:100E500000F012FB040003D015E000F035F9E8E7DC
:100E60000D4800F037FB04000DD11E2000F036F8CD
:100E7000102D07D2002229461E2000F03DF8074819
:100E8000056000E0012407B0204630BD001002409C
:100E900040420F0000080040A40000200400002091
:100EA0000C4808B5816941F001018161816901F057
:100EB00001010091C16941F08051C161C06900F038
:100EC000805000900448416821F0E06141F00071D9
:100ED000416008BD0010024000000140002809DB0D
:100EE00000F01F02012191404009800000F1E02044
:100EF000C0F8001170470000F0B40E4B1B680C46A0
:100F0000C3F30223C3F10705042D00D90425191DDD
:100F1000072901D2002300E0DB1E012606FA05F1B5
:100F2000491E214099409E40761E16403143F0BC38
:100F300000F0FEBD0CED00E0064900F00702086875
:100F40004FF6FF03184040EA0220034A10430860AE
:100F5000704700000CED00E00000FA052DE9F047B5
:100F60000F46050061D0434E306800F00700B842DC
:100F700009D2306820F0070038433060306800F054
:100F80000700B84251D128683B4C810712D5400771
:100F900003D5606840F4E06060602878000703D5FE
:100FA000606840F4605060606068A96820F0F000FC
:100FB000084360602878C00728D06868012810D0EE
:100FC0002168022810D0890700292EDA616821F0F3
:100FD000030101436160FFF7F7FE804641F2883963
:100FE0000DE021688903EFE78901EDE7FFF7ECFEEB
:100FF000A0EB0801494502D90320BDE8F0876068ED
:10100000696800F00C00B0EB810FEFD1306800F0A0
:101010000700B8420BD9306820F007003843306031
:10102000306800F00700B84201D00120E5E72878D9
:10103000400705D56068E96820F4E0600843606017
:101040002878000706D56068296920F4605040EAD6
:10105000C100606000F058F86168084AC1F30311EC
:10106000515CC8400649086006480068FFF7CCFE9E
:101070000020C2E70020024000100240DE1B0008F2
:101080000C000020040000200F2202600C4A53686C
:1010900003F003034360536803F0F0038360536875
:1010A00003F4E063C36052684FF4E06303EAD202E2
:1010B00002610448006800F0070008607047000003
:1010C00000100240002002400448054900684968B9
:1010D000044AC1F30221515CC84070470C00002053
:1010E00000100240EE1B00080448054900684968EA
:1010F000044AC1F3C221515CC84070470C00002073
:1011000000100240EE1B00080E4A51680E4801F024
:101110000C03042B11D0082B0FD10C48C1F38343CF
:10112000C903C05C0AD55168084AC1F34041921E08
:10113000515C054A5043B0FBF1F070470449484305
:10114000704700000010024000127A00CE1B000819
:1011500000093D002DE9F84F040070D02078C04D03
:10116000C00749D06868C0F38100012807D06868CB
:10117000C0F38100022809D16868C00306D5286839
:10118000800339D560680028E7D035E06068B0F5A5
:10119000803F0BD010B1B0F5A02F11D0286820F4FB
:1011A00080302860286820F4802002E0286840F41D
:1011B00080302860606890B1FFF706FE06460AE0BE
:1011C000286840F480202860F0E700BFFFF7FCFDAE
:1011D000801B642873D828688003F7D50CE0FFF7DC
:1011E000F3FD064605E000BFFFF7EEFD801B642817
:1011F000F0D828688003F7D420789A4E80074FF003
:1012000001094FF0000839D5686810F00C0F07D0BD
:101210006868C0F38100022809D16868C00306D459
:101220002868800714D52069012808D110E02069BA
:10123000B0B1C6F80090FFF7C7FD074605E00AE128
:10124000FFF7C2FDC01B0228C4D828688007F7D565
:101250002868616920F0F80040EAC10028600DE0CC
:10126000C6F80080FFF7B0FD074604E0FFF7ACFDCD
:10127000C01B022823D828688007F7D420780007ED
:101280002CD57948A169D9B1C0F80090FFF79CFD31
:10129000074604E0FFF798FDC01B02280FD8686AD4
:1012A0008007F7D571484FF4FA510068B0FBF1F0B0
:1012B000009000BF0098411E0091FAD20EE080E03D
:1012C000C0F80080FFF780FD074604E0FFF77CFDD3
:1012D000C01B022875D8686A8007F7D420784007B9
:1012E00060D5E8690027C00008D4E86940F0805064
:1012F000E861E869012700F0805000905C480168CF
:10130000C90513D40168834641F480710160FFF779
:101310005BFD824606E000BFFFF756FDA0EB0A002A
:1013200064284ED8DBF80000C005F5D5E068012838
:101330000AD008B1052813D0286A20F001002862DD
:10134000286A20F0040002E0286A40F001002862C8
:10135000E06841F2883B98B1FFF736FD82460BE02A
:10136000286A40F004002862EEE700BFFFF72CFD7A
:10137000A0EB0A0159455AD8286A8007F6D50CE037
:10138000FFF722FD824605E0FFF71EFDA0EB0A01F4
:1013900059454CD8286A8007F6D41FB1E86920F077
:1013A0008050E861E06988B36968C1F3810102296E
:1013B00044D00228C6F8608004D0FFF705FD04463B
:1013C00038E034E0FFF700FD074604E0FFF7FCFCDF
:1013D000C01B02282BD828688001F7D4206AB0F5FA
:1013E000803F05D16868A16820F400300843686038
:1013F000D4E908010843696821F47411084368605E
:10140000C6F86090FFF7E0FC044606E025E000BF68
:10141000FFF7DAFC001B022809D828688001F7D5FD
:101420001BE000BFFFF7D0FC001B022802D90320FD
:10143000BDE8F88F28688001F4D40EE00128F7D0C9
:101440006868226A00F48031914204D1616A00F434
:101450007010884201D00120EAE70020E8E7000090
:101460000010024000004242800442420C00002072
:10147000007000407047704710B5040003D094F826
:101480003D0010B107E0012010BD002084F83C00B1
:10149000204600F01EF8022084F83D00211D20683F
:1014A00000F04CFA012084F8460084F83E0084F8ED
:1014B0003F0084F8400084F8410084F8420084F83A
:1014C000430084F8440084F8450084F83D0000207F
:1014D00010BD704790F83D10012901D001207047E0
:1014E000022180F83D100168CA6842F00102CA601A
:1014F00000680B49884208D0B0F1804F05D00949F7
:10150000884202D00849884204D1816801F007016D
:10151000062903D0016841F00101016000207047F5
:10152000002C0140000400400008004070472DE9F5
:10153000F04104460068C66805694FF00007A90736
:1015400013D5B10711D5F91E01610120207720685C
:1015500080698007204602D0FFF7E8FF04E000F032
:101560007EF8204600F07CF82777680716D57007CC
:1015700014D521686FF004000861022020772068EC
:10158000806910F4407F204602D0FFF7CFFF04E0CF
:1015900000F065F8204600F063F82777280715D596
:1015A000300713D521686FF0080008610420207708
:1015B0002068C0698007204602D0FFF7B7FF04E02B
:1015C00000F04DF8204600F04BF82777E80616D5D6
:1015D000F00614D521686FF010000861082020770C
:1015E0002068C06910F4407F204602D0FFF79EFFBC
:1015F00004E000F034F8204600F032F82777E807DE
:1016000008D0F00706D021686FF00100086120467D
:1016100000F028F8280608D5300606D521686FF0B6
:10162000800008612046FFF725FF680608D5700690
:1016300006D521686FF040000861204600F01CF8D4
:10164000A8060AD5B00608D521686FF02000086109
:101650002046BDE8F041FFF70EBFBDE8F0817047BE
:101660007047000000680349884201D1FFF7B2BB10
:101670007047000000080040704770B5040004D0B7
:1016800094F84100002510B106E0012070BD84F8F7
:101690004050204600F024F8242084F841002068BF
:1016A000C16821F40051C160204600F0ABF9206808
:1016B000016921F4904101612068416921F02A010A
:1016C00041612068C16841F40051C1606564202017
:1016D00084F8410084F842006563002070BD00007A
:1016E00030B585B0002400940194029403940068FE
:1016F0001449884224D11448816941F480418161B0
:10170000816901F480410491816941F004018161A2
:1017100080690E4D00F0040004904FF400700090BA
:10172000022001900320039069462846FFF756FAED
:101730002815CDE90004694628460294FFF74EFAC1
:1017400005B030BD003801400010024000080140E3
:101750002DE9F843044690F84100984616460D4698
:10176000202802D00220BDE8F88385B17EB1002098
:101770006064212084F84100FFF726FBA68481469F
:10178000E684A0682027B0F5805F02D003E0012046
:10179000E9E7206910B12E4600250EE000260CE096
:1017A0008021204600F08AF9A8B9C6B116F8010BCD
:1017B00021684860E08C401EE084E08C4B464FF08E
:1017C0000002CDF800800028EAD14FF04001204609
:1017D00000F074F940B184F841700320C3E735F894
:1017E000020BC0F30800E3E784F841700020BAE779
:1017F000FEE7000070B586B00024234800940194F1
:1018000002940394816941F020018161816901F0B2
:1018100020010491816941F008018161816901F031
:1018200008010491816941F0040181618069174ECA
:1018300000F004000490002246F2E0313046FFF749
:10184000BDFAB014CDE90004694630460294FFF7B2
:10185000C5F94FF4C040009011200125CDE90105E4
:101860000320039069463046FFF7B8F94FF47870CB
:10187000CDE900050220CDE9024069463046FFF778
:10188000ADF906B070BD000000100240000C014030
:101890000C4810B50A4901604FF4E1314160002164
:1018A00081600C22C160C0E904128161C161FFF74F
:1018B000E4FE002803D0BDE81040FFF78DB910BD4D
:1018C000003801405C000020FEE7FEE7704730B5BD
:1018D0008FB028216846FEF7D7FC14210AA8FEF72E
:1018E000D3FC01210804CDE9001000240294022554
:1018F0000491CDE907504FF4E01009906846FFF7D6
:1019000029FC08B172B6FEE70F20CDE90A054FF4B5
:101910008060CDE90C4002210AA80E94FFF71EFB5F
:10192000002801D072B6FEE70FB030BD704700004E
:101930000148FFF7FCBD0000A4000020F0B50268DC
:10194000194B1A4C1A4D4FF08047984205D0B842B7
:1019500003D0A04201D0A84203D122F070064A6809
:101960003243984205D0B84203D0A04201D0A842E9
:1019700003D122F44074CA6822434C6922F08002E9
:10198000224302608A68C2620A688262984201D178
:1019900009690163012141610169C90703D0016936
:1019A00021F001010161F0BD002C01400004004064
:1019B0000008004001680C3151E8002F22F49072B9
:1019C00041E80023002BF5D10168143151E8002FC4
:1019D00022F0010241E80023002BF5D1016B01291F
:1019E00009D101680C3151E8002F22F0100241E8C2
:1019F0000023002BF5D1202180F842100021016343
:101A00007047000070B5044600680169E26821F47F
:101A10004051114301612169A0680843616908438D
:101A20002168CA6841F20C639A430243CA60206885
:101A30004169A26921F44071114341611E49206846
:101A4000884202D1FFF750FB01E0FFF73DFB00EBBE
:101A5000C00101EB0012606864218000B2FBF0F36A
:101A6000B3FBF1F36FF018067343B2FBF0F5B2FB72
:101A7000F0F605EB8305322303EB0515B5FBF1F515
:101A8000B6FBF1F605F0F00505EB0615B2FBF0F636
:101A9000B2FBF0F0B0FBF1F06FF01802504306EB30
:101AA000800003EB0010B0FBF1F0216800F00F00A4
:101AB0002844886070BD0000003801402DE9F843DB
:101AC000984617460D460446089E24E0701C22D016
:101AD000FFF77AF9A0EB0800B0421AD8CEB120681F
:101AE000C168490717D5802D15D0402D13D0016846
:101AF000C94309070FD401680025406800902046BB
:101B0000FFF758FF0820606484F840500120BDE8CA
:101B1000F8830320FBE72068006835EA000004D062
:101B20000020B842D2D00020F1E70120F9E7FEE71B
:101B30000907090E002804DB00F1E02080F80014FA
:101B4000704700F00F0000F1E02080F8141D70478E
:101B500013B54FF0FF33012269460248FFF7F8FD45
:101B600000981CBD5C000020FFF73CF9FFF7AFFEBA
:101B7000FFF740FEFFF78CFE01A0FEF779FBFBE7C5
:101B800061666166000000000E48416B11B10121E1
:101B9000C16170470021C16101690B4AB1FA81F14D
:101BA000C1F11F0101EB810102EB810101F1080389
:101BB0004A6852684A609A4201D152684A60D168C4
:101BC0000160704710000020EC00002001020203B9
:101BD0000405060708090A0B0C0D0E0F1010000073
:101BE00000000000000001020304060708090000CD
:101BF0000000010203043A7474003A7474003A74E9
:101C000074000000241C0008000000205C0000009C
:101C100028010008801C00085C000020B4080000B7
:101C20004401000801000000100000000000000056
:101C300000127A0000000000000000000000000018
:101C40000000000000000000000000000000000094
:101C50000000000000000000000000000000000084
:101C60000000000004000000000000000000000070
:101C70000000000000000000000000000000000064
:04000005080000ED02
:00000001FF
